{
  "_format": "hh-sol-artifact-1",
  "contractName": "Campaign",
  "sourceName": "contracts/Campaign.sol",
  "abi": [
    {
      "inputs": [
        {
          "internalType": "uint256",
          "name": "_targetAmount",
          "type": "uint256"
        },
        {
          "internalType": "string",
          "name": "_title",
          "type": "string"
        }
      ],
      "stateMutability": "nonpayable",
      "type": "constructor"
    },
    {
      "anonymous": false,
      "inputs": [],
      "name": "Contributed",
      "type": "event"
    },
    {
      "anonymous": false,
      "inputs": [
        {
          "indexed": false,
          "internalType": "address",
          "name": "to",
          "type": "address"
        },
        {
          "indexed": false,
          "internalType": "uint256",
          "name": "amount",
          "type": "uint256"
        }
      ],
      "name": "ContributorWithdraw",
      "type": "event"
    },
    {
      "anonymous": false,
      "inputs": [
        {
          "indexed": false,
          "internalType": "address",
          "name": "from",
          "type": "address"
        },
        {
          "indexed": false,
          "internalType": "address",
          "name": "to",
          "type": "address"
        },
        {
          "indexed": false,
          "internalType": "uint256",
          "name": "amount",
          "type": "uint256"
        }
      ],
      "name": "CreatorWithdraw",
      "type": "event"
    },
    {
      "anonymous": false,
      "inputs": [
        {
          "indexed": false,
          "internalType": "address",
          "name": "from",
          "type": "address"
        },
        {
          "indexed": false,
          "internalType": "address",
          "name": "to",
          "type": "address"
        },
        {
          "indexed": false,
          "internalType": "uint8",
          "name": "tokenId",
          "type": "uint8"
        }
      ],
      "name": "Transfer",
      "type": "event"
    },
    {
      "anonymous": false,
      "inputs": [],
      "name": "Withdrawn",
      "type": "event"
    },
    {
      "inputs": [
        {
          "internalType": "address",
          "name": "_address",
          "type": "address"
        }
      ],
      "name": "balanceOf",
      "outputs": [
        {
          "internalType": "uint256",
          "name": "",
          "type": "uint256"
        }
      ],
      "stateMutability": "view",
      "type": "function"
    },
    {
      "inputs": [],
      "name": "canFund",
      "outputs": [
        {
          "internalType": "bool",
          "name": "",
          "type": "bool"
        }
      ],
      "stateMutability": "view",
      "type": "function"
    },
    {
      "inputs": [],
      "name": "cancelProject",
      "outputs": [],
      "stateMutability": "nonpayable",
      "type": "function"
    },
    {
      "inputs": [],
      "name": "contributeToProject",
      "outputs": [],
      "stateMutability": "payable",
      "type": "function"
    },
    {
      "inputs": [],
      "name": "contributedSum",
      "outputs": [
        {
          "internalType": "uint256",
          "name": "",
          "type": "uint256"
        }
      ],
      "stateMutability": "view",
      "type": "function"
    },
    {
      "inputs": [],
      "name": "contributorWithdraw",
      "outputs": [],
      "stateMutability": "nonpayable",
      "type": "function"
    },
    {
      "inputs": [
        {
          "internalType": "address",
          "name": "",
          "type": "address"
        }
      ],
      "name": "contributors",
      "outputs": [
        {
          "internalType": "uint256",
          "name": "",
          "type": "uint256"
        }
      ],
      "stateMutability": "view",
      "type": "function"
    },
    {
      "inputs": [],
      "name": "createdAt",
      "outputs": [
        {
          "internalType": "uint256",
          "name": "",
          "type": "uint256"
        }
      ],
      "stateMutability": "view",
      "type": "function"
    },
    {
      "inputs": [],
      "name": "creator",
      "outputs": [
        {
          "internalType": "address payable",
          "name": "",
          "type": "address"
        }
      ],
      "stateMutability": "view",
      "type": "function"
    },
    {
      "inputs": [
        {
          "internalType": "uint256",
          "name": "withdrawAmount",
          "type": "uint256"
        }
      ],
      "name": "creatorWithdraw",
      "outputs": [],
      "stateMutability": "nonpayable",
      "type": "function"
    },
    {
      "inputs": [],
      "name": "expiresIn",
      "outputs": [
        {
          "internalType": "uint256",
          "name": "",
          "type": "uint256"
        }
      ],
      "stateMutability": "view",
      "type": "function"
    },
    {
      "inputs": [
        {
          "internalType": "address",
          "name": "_address",
          "type": "address"
        }
      ],
      "name": "getToken",
      "outputs": [
        {
          "internalType": "uint256",
          "name": "",
          "type": "uint256"
        }
      ],
      "stateMutability": "view",
      "type": "function"
    },
    {
      "inputs": [
        {
          "internalType": "uint8",
          "name": "tokenId",
          "type": "uint8"
        }
      ],
      "name": "getType",
      "outputs": [
        {
          "internalType": "uint256",
          "name": "",
          "type": "uint256"
        }
      ],
      "stateMutability": "view",
      "type": "function"
    },
    {
      "inputs": [
        {
          "internalType": "uint8",
          "name": "tokenId",
          "type": "uint8"
        }
      ],
      "name": "ownerOf",
      "outputs": [
        {
          "internalType": "address",
          "name": "",
          "type": "address"
        }
      ],
      "stateMutability": "view",
      "type": "function"
    },
    {
      "inputs": [],
      "name": "targetAmount",
      "outputs": [
        {
          "internalType": "uint256",
          "name": "",
          "type": "uint256"
        }
      ],
      "stateMutability": "view",
      "type": "function"
    },
    {
      "inputs": [],
      "name": "title",
      "outputs": [
        {
          "internalType": "string",
          "name": "",
          "type": "string"
        }
      ],
      "stateMutability": "view",
      "type": "function"
    },
    {
      "stateMutability": "payable",
      "type": "receive"
    }
  ],
  "bytecode": "0x60806040526003600760006101000a81548160ff021916908360ff1602179055506001600760016101000a81548160ff0219169083151502179055503480156200004857600080fd5b506040516200246d3803806200246d83398181016040528101906200006e91906200022f565b336000806101000a81548173ffffffffffffffffffffffffffffffffffffffff021916908373ffffffffffffffffffffffffffffffffffffffff160217905550816003819055508060019080519060200190620000cd929190620000f6565b504260058190555062278d00600554620000e89190620002e8565b6006819055505050620004a9565b828054620001049062000385565b90600052602060002090601f01602090048101928262000128576000855562000174565b82601f106200014357805160ff191683800117855562000174565b8280016001018555821562000174579182015b828111156200017357825182559160200191906001019062000156565b5b50905062000183919062000187565b5090565b5b80821115620001a257600081600090555060010162000188565b5090565b6000620001bd620001b784620002b2565b62000289565b905082815260208101848484011115620001d657600080fd5b620001e38482856200034f565b509392505050565b600082601f830112620001fd57600080fd5b81516200020f848260208601620001a6565b91505092915050565b60008151905062000229816200048f565b92915050565b600080604083850312156200024357600080fd5b6000620002538582860162000218565b925050602083015167ffffffffffffffff8111156200027157600080fd5b6200027f85828601620001eb565b9150509250929050565b600062000295620002a8565b9050620002a38282620003bb565b919050565b6000604051905090565b600067ffffffffffffffff821115620002d057620002cf6200044f565b5b620002db826200047e565b9050602081019050919050565b6000620002f58262000345565b9150620003028362000345565b9250827fffffffffffffffffffffffffffffffffffffffffffffffffffffffffffffffff038211156200033a5762000339620003f1565b5b828201905092915050565b6000819050919050565b60005b838110156200036f57808201518184015260208101905062000352565b838111156200037f576000848401525b50505050565b600060028204905060018216806200039e57607f821691505b60208210811415620003b557620003b462000420565b5b50919050565b620003c6826200047e565b810181811067ffffffffffffffff82111715620003e857620003e76200044f565b5b80604052505050565b7f4e487b7100000000000000000000000000000000000000000000000000000000600052601160045260246000fd5b7f4e487b7100000000000000000000000000000000000000000000000000000000600052602260045260246000fd5b7f4e487b7100000000000000000000000000000000000000000000000000000000600052604160045260246000fd5b6000601f19601f8301169050919050565b6200049a8162000345565b8114620004a657600080fd5b50565b611fb480620004b96000396000f3fe6080604052600436106100f75760003560e01c8063597704381161008a578063a7361afb11610059578063a7361afb14610337578063bc352c9114610341578063cf09e0d01461036c578063d741043014610397576100fe565b8063597704381461026957806370a08231146102a657806371eb89f3146102e3578063953b8fb81461030c576100fe565b80631adff0ee116100c65780631adff0ee146101d35780631f6d4942146101ea57806336e5ddc9146102275780634a79d50c1461023e576100fe565b8063024591ff1461010357806302d05d3f146101405780630c5fe27c1461016b578063122093e314610196576100fe565b366100fe57005b600080fd5b34801561010f57600080fd5b5061012a600480360381019061012591906113ac565b6103c2565b604051610137919061168a565b60405180910390f35b34801561014c57600080fd5b50610155610405565b60405161016291906116a5565b60405180910390f35b34801561017757600080fd5b50610180610429565b60405161018d91906119a0565b60405180910390f35b3480156101a257600080fd5b506101bd60048036038101906101b891906113ac565b61042f565b6040516101ca91906119a0565b60405180910390f35b3480156101df57600080fd5b506101e86104fb565b005b3480156101f657600080fd5b50610211600480360381019061020c919061135a565b610644565b60405161021e91906119a0565b60405180910390f35b34801561023357600080fd5b5061023c61065c565b005b34801561024a57600080fd5b506102536108fa565b6040516102609190611772565b60405180910390f35b34801561027557600080fd5b50610290600480360381019061028b919061135a565b610988565b60405161029d91906119a0565b60405180910390f35b3480156102b257600080fd5b506102cd60048036038101906102c8919061135a565b6109d1565b6040516102da91906119a0565b60405180910390f35b3480156102ef57600080fd5b5061030a60048036038101906103059190611383565b610a1a565b005b34801561031857600080fd5b50610321610cc3565b60405161032e91906119a0565b60405180910390f35b61033f610cc9565b005b34801561034d57600080fd5b50610356611046565b6040516103639190611757565b60405180910390f35b34801561037857600080fd5b50610381611059565b60405161038e91906119a0565b60405180910390f35b3480156103a357600080fd5b506103ac61105f565b6040516103b991906119a0565b60405180910390f35b6000600960008360ff1660ff16815260200190815260200160002060009054906101000a900473ffffffffffffffffffffffffffffffffffffffff169050919050565b60008054906101000a900473ffffffffffffffffffffffffffffffffffffffff1681565b60065481565b60008073ffffffffffffffffffffffffffffffffffffffff16600960008460ff1660ff16815260200190815260200160002060009054906101000a900473ffffffffffffffffffffffffffffffffffffffff1673ffffffffffffffffffffffffffffffffffffffff1614156104d9576040517f08c379a00000000000000000000000000000000000000000000000000000000081526004016104d090611820565b60405180910390fd5b6000600760009054906101000a900460ff16831690508060ff16915050919050565b60008054906101000a900473ffffffffffffffffffffffffffffffffffffffff1673ffffffffffffffffffffffffffffffffffffffff163373ffffffffffffffffffffffffffffffffffffffff1614610589576040517f08c379a000000000000000000000000000000000000000000000000000000000815260040161058090611960565b60405180910390fd5b600760019054906101000a900460ff166105d8576040517f08c379a00000000000000000000000000000000000000000000000000000000081526004016105cf90611980565b60405180910390fd5b600760019054906101000a900460ff16610627576040517f08c379a000000000000000000000000000000000000000000000000000000000815260040161061e90611920565b60405180910390fd5b6000600760016101000a81548160ff021916908315150217905550565b60086020528060005260406000206000915090505481565b600760019054906101000a900460ff16156106ac57600062278d0060055461068491906119e2565b4211905080156106aa576000600760016101000a81548160ff0219169083151502179055505b505b600760019054906101000a900460ff16156106fc576040517f08c379a00000000000000000000000000000000000000000000000000000000081526004016106f390611840565b60405180910390fd5b6000600860003373ffffffffffffffffffffffffffffffffffffffff1673ffffffffffffffffffffffffffffffffffffffff16815260200190815260200160002054141561077f576040517f08c379a0000000000000000000000000000000000000000000000000000000008152600401610776906117e0565b60405180910390fd5b6000600860003373ffffffffffffffffffffffffffffffffffffffff1673ffffffffffffffffffffffffffffffffffffffff1681526020019081526020016000205490506000600860003373ffffffffffffffffffffffffffffffffffffffff1673ffffffffffffffffffffffffffffffffffffffff1681526020019081526020016000208190555061081133611065565b60003373ffffffffffffffffffffffffffffffffffffffff168260405161083790611675565b60006040518083038185875af1925050503d8060008114610874576040519150601f19603f3d011682016040523d82523d6000602084013e610879565b606091505b50509050806108bd576040517f08c379a00000000000000000000000000000000000000000000000000000000081526004016108b4906118c0565b60405180910390fd5b7f5adaf4d1a36d8ab80a8c79cd9b9915f762db52dd783be616aa25a6238218c96233836040516108ee92919061172e565b60405180910390a15050565b6001805461090790611b73565b80601f016020809104026020016040519081016040528092919081815260200182805461093390611b73565b80156109805780601f1061095557610100808354040283529160200191610980565b820191906000526020600020905b81548152906001019060200180831161096357829003601f168201915b505050505081565b6000600a60008373ffffffffffffffffffffffffffffffffffffffff1673ffffffffffffffffffffffffffffffffffffffff168152602001908152602001600020549050919050565b6000600860008373ffffffffffffffffffffffffffffffffffffffff1673ffffffffffffffffffffffffffffffffffffffff168152602001908152602001600020549050919050565b60008054906101000a900473ffffffffffffffffffffffffffffffffffffffff1673ffffffffffffffffffffffffffffffffffffffff163373ffffffffffffffffffffffffffffffffffffffff1614610aa8576040517f08c379a0000000000000000000000000000000000000000000000000000000008152600401610a9f90611960565b60405180910390fd5b600760019054906101000a900460ff1615610af8576040517f08c379a0000000000000000000000000000000000000000000000000000000008152600401610aef90611940565b60405180910390fd5b6003546004541015610b3f576040517f08c379a0000000000000000000000000000000000000000000000000000000008152600401610b3690611860565b60405180910390fd5b8060045411610b83576040517f08c379a0000000000000000000000000000000000000000000000000000000008152600401610b7a906118e0565b60405180910390fd5b80600454610b919190611a6f565b60048190555060008060009054906101000a900473ffffffffffffffffffffffffffffffffffffffff1673ffffffffffffffffffffffffffffffffffffffff1682604051610bde90611675565b60006040518083038185875af1925050503d8060008114610c1b576040519150601f19603f3d011682016040523d82523d6000602084013e610c20565b606091505b5050905080610c64576040517f08c379a0000000000000000000000000000000000000000000000000000000008152600401610c5b90611800565b60405180910390fd5b7f9e9d296fc20327f4c51b991917397cd7d530fb5caf24682cf79a615ed245d35b3360008054906101000a900473ffffffffffffffffffffffffffffffffffffffff1684604051610cb7939291906116c0565b60405180910390a15050565b60035481565b600760019054906101000a900460ff16610d18576040517f08c379a0000000000000000000000000000000000000000000000000000000008152600401610d0f90611980565b60405180910390fd5b662386f26fc100003411610d61576040517f08c379a0000000000000000000000000000000000000000000000000000000008152600401610d5890611880565b60405180910390fd5b600062278d00600554610d7491906119e2565b421190508015610d9a576000600760016101000a81548160ff0219169083151502179055505b600760019054906101000a900460ff16610de9576040517f08c379a0000000000000000000000000000000000000000000000000000000008152600401610de090611900565b60405180910390fd5b3460046000828254610dfb91906119e2565b9250508190555034600860003373ffffffffffffffffffffffffffffffffffffffff1673ffffffffffffffffffffffffffffffffffffffff1681526020019081526020016000206000828254610e5191906119e2565b9250508190555060035460045410610e7f576000600760016101000a81548160ff0219169083151502179055505b610ed36040518060400160405280600b81526020017f636f6e7472696275746564000000000000000000000000000000000000000000815250600760019054906101000a900460ff16600454600354611130565b670de0b6b3a7640000600860003373ffffffffffffffffffffffffffffffffffffffff1673ffffffffffffffffffffffffffffffffffffffff1681526020019081526020016000205410610f6857610f63600280811115610f5d577f4e487b7100000000000000000000000000000000000000000000000000000000600052602160045260246000fd5b336111d2565b611043565b6703782dace9d90000600860003373ffffffffffffffffffffffffffffffffffffffff1673ffffffffffffffffffffffffffffffffffffffff1681526020019081526020016000205410610ffe57610ff960016002811115610ff3577f4e487b7100000000000000000000000000000000000000000000000000000000600052602160045260246000fd5b336111d2565b611042565b6110416000600281111561103b577f4e487b7100000000000000000000000000000000000000000000000000000000600052602160045260246000fd5b336111d2565b5b5b50565b600760019054906101000a900460ff1681565b60055481565b60045481565b6000600a60008373ffffffffffffffffffffffffffffffffffffffff1673ffffffffffffffffffffffffffffffffffffffff1681526020019081526020016000205414156110e8576040517f08c379a00000000000000000000000000000000000000000000000000000000081526004016110df906118a0565b60405180910390fd5b6000600a60008373ffffffffffffffffffffffffffffffffffffffff1673ffffffffffffffffffffffffffffffffffffffff1681526020019081526020016000208190555050565b6111cc8484848460405160240161114a9493929190611794565b6040516020818303038152906040527f5dbff038000000000000000000000000000000000000000000000000000000007bffffffffffffffffffffffffffffffffffffffffffffffffffffffff19166020820180517bffffffffffffffffffffffffffffffffffffffffffffffffffffffff83818316178352505050506112f2565b50505050565b600082600760009054906101000a900460ff1660ff16600254901b6111f79190611a38565b905081600960008360ff1660ff16815260200190815260200160002060006101000a81548173ffffffffffffffffffffffffffffffffffffffff021916908373ffffffffffffffffffffffffffffffffffffffff1602179055508060ff16600a60008473ffffffffffffffffffffffffffffffffffffffff1673ffffffffffffffffffffffffffffffffffffffff168152602001908152602001600020819055506001600260008282546112ab91906119e2565b925050819055507f2c4d9d1041355b152e80b28195d8cd57a1363203c2b1a39c0559f0e757747d5c3383836040516112e5939291906116f7565b60405180910390a1505050565b60008151905060006a636f6e736f6c652e6c6f679050602083016000808483855afa5050505050565b60008135905061132a81611f39565b92915050565b60008135905061133f81611f50565b92915050565b60008135905061135481611f67565b92915050565b60006020828403121561136c57600080fd5b600061137a8482850161131b565b91505092915050565b60006020828403121561139557600080fd5b60006113a384828501611330565b91505092915050565b6000602082840312156113be57600080fd5b60006113cc84828501611345565b91505092915050565b6113de81611b0a565b82525050565b6113ed81611ab5565b82525050565b6113fc81611aa3565b82525050565b61140b81611ac7565b82525050565b600061141c826119bb565b61142681856119d1565b9350611436818560208601611b40565b61143f81611c03565b840191505092915050565b60006114576023836119d1565b915061146282611c14565b604082019050919050565b600061147a601f836119d1565b915061148582611c63565b602082019050919050565b600061149d6014836119d1565b91506114a882611c8c565b602082019050919050565b60006114c06015836119d1565b91506114cb82611cb5565b602082019050919050565b60006114e36018836119d1565b91506114ee82611cde565b602082019050919050565b60006115066025836119d1565b915061151182611d07565b604082019050919050565b60006115296017836119d1565b915061153482611d56565b602082019050919050565b600061154c6015836119d1565b915061155782611d7f565b602082019050919050565b600061156f6029836119d1565b915061157a82611da8565b604082019050919050565b60006115926010836119d1565b915061159d82611df7565b602082019050919050565b60006115b56000836119c6565b91506115c082611e20565b600082019050919050565b60006115d86029836119d1565b91506115e382611e23565b604082019050919050565b60006115fb602b836119d1565b915061160682611e72565b604082019050919050565b600061161e6027836119d1565b915061162982611ec1565b604082019050919050565b60006116416017836119d1565b915061164c82611f10565b602082019050919050565b61166081611af3565b82525050565b61166f81611afd565b82525050565b6000611680826115a8565b9150819050919050565b600060208201905061169f60008301846113f3565b92915050565b60006020820190506116ba60008301846113e4565b92915050565b60006060820190506116d560008301866113f3565b6116e260208301856113d5565b6116ef6040830184611657565b949350505050565b600060608201905061170c60008301866113f3565b61171960208301856113f3565b6117266040830184611666565b949350505050565b600060408201905061174360008301856113f3565b6117506020830184611657565b9392505050565b600060208201905061176c6000830184611402565b92915050565b6000602082019050818103600083015261178c8184611411565b905092915050565b600060808201905081810360008301526117ae8187611411565b90506117bd6020830186611402565b6117ca6040830185611657565b6117d76060830184611657565b95945050505050565b600060208201905081810360008301526117f98161144a565b9050919050565b600060208201905081810360008301526118198161146d565b9050919050565b6000602082019050818103600083015261183981611490565b9050919050565b60006020820190508181036000830152611859816114b3565b9050919050565b60006020820190508181036000830152611879816114d6565b9050919050565b60006020820190508181036000830152611899816114f9565b9050919050565b600060208201905081810360008301526118b98161151c565b9050919050565b600060208201905081810360008301526118d98161153f565b9050919050565b600060208201905081810360008301526118f981611562565b9050919050565b6000602082019050818103600083015261191981611585565b9050919050565b60006020820190508181036000830152611939816115cb565b9050919050565b60006020820190508181036000830152611959816115ee565b9050919050565b6000602082019050818103600083015261197981611611565b9050919050565b6000602082019050818103600083015261199981611634565b9050919050565b60006020820190506119b56000830184611657565b92915050565b600081519050919050565b600081905092915050565b600082825260208201905092915050565b60006119ed82611af3565b91506119f883611af3565b9250827fffffffffffffffffffffffffffffffffffffffffffffffffffffffffffffffff03821115611a2d57611a2c611ba5565b5b828201905092915050565b6000611a4382611afd565b9150611a4e83611afd565b92508260ff03821115611a6457611a63611ba5565b5b828201905092915050565b6000611a7a82611af3565b9150611a8583611af3565b925082821015611a9857611a97611ba5565b5b828203905092915050565b6000611aae82611ad3565b9050919050565b6000611ac082611ad3565b9050919050565b60008115159050919050565b600073ffffffffffffffffffffffffffffffffffffffff82169050919050565b6000819050919050565b600060ff82169050919050565b6000611b1582611b1c565b9050919050565b6000611b2782611b2e565b9050919050565b6000611b3982611ad3565b9050919050565b60005b83811015611b5e578082015181840152602081019050611b43565b83811115611b6d576000848401525b50505050565b60006002820490506001821680611b8b57607f821691505b60208210811415611b9f57611b9e611bd4565b5b50919050565b7f4e487b7100000000000000000000000000000000000000000000000000000000600052601160045260246000fd5b7f4e487b7100000000000000000000000000000000000000000000000000000000600052602260045260246000fd5b6000601f19601f8301169050919050565b7f4164647265737320686173206e6f742066756e64656420746869732070726f6a60008201527f6563740000000000000000000000000000000000000000000000000000000000602082015250565b7f4661696c656420746f2073656e6420457468657220746f2043726561746f7200600082015250565b7f546f6b656e20646f6573206e6f74206578697374000000000000000000000000600082015250565b7f50726f6a656374206973207374696c6c206f70656e0000000000000000000000600082015250565b7f50726f6a656374206e6f742066756c6c792066756e6465640000000000000000600082015250565b7f4d696e696e756d20726571756972656420616d6f756e7420697320302e30312060008201527f6574686572000000000000000000000000000000000000000000000000000000602082015250565b7f4e6f20746f6b656e20657869737420666f722075736572000000000000000000600082015250565b7f4574686572205769746864726177206661696c65640000000000000000000000600082015250565b7f416d6f756e7420746f207769746864726177206578636565647320636f6e747260008201527f6163742066756e64730000000000000000000000000000000000000000000000602082015250565b7f4578636565646564203330206461797300000000000000000000000000000000600082015250565b50565b7f50726f6a65637420697320616c726561647920636c6f736564206f722066756c60008201527f6c792066756e6465640000000000000000000000000000000000000000000000602082015250565b7f50726f6a656374206973206e6f742066756c6c792066756e646564207965742060008201527f2f20697320436c6f736564000000000000000000000000000000000000000000602082015250565b7f4f6e6c792070726f6a6563742063726561746f722063616e207769746864726160008201527f772066756e647300000000000000000000000000000000000000000000000000602082015250565b7f50726f6a6563742069732066756c6c792066756e646564000000000000000000600082015250565b611f4281611aa3565b8114611f4d57600080fd5b50565b611f5981611af3565b8114611f6457600080fd5b50565b611f7081611afd565b8114611f7b57600080fd5b5056fea2646970667358221220583350dd3664becdf9f06f625390ab10bac8743a0ee305bdf2f9f93ea632760564736f6c63430008040033",
  "linkReferences": {},
  "deployedLinkReferences": {}
}