{
  "_format": "hh-sol-artifact-1",
  "contractName": "Campaign",
  "sourceName": "contracts/Campaign.sol",
  "abi": [
    {
      "inputs": [
        {
          "internalType": "uint256",
          "name": "_targetAmount",
          "type": "uint256"
        },
        {
          "internalType": "string",
          "name": "_title",
          "type": "string"
        }
      ],
      "stateMutability": "nonpayable",
      "type": "constructor"
    },
    {
      "anonymous": false,
      "inputs": [],
      "name": "Contributed",
      "type": "event"
    },
    {
      "anonymous": false,
      "inputs": [
        {
          "indexed": false,
          "internalType": "address",
          "name": "to",
          "type": "address"
        },
        {
          "indexed": false,
          "internalType": "uint256",
          "name": "amount",
          "type": "uint256"
        }
      ],
      "name": "ContributorWithdraw",
      "type": "event"
    },
    {
      "anonymous": false,
      "inputs": [
        {
          "indexed": false,
          "internalType": "address",
          "name": "from",
          "type": "address"
        },
        {
          "indexed": false,
          "internalType": "address",
          "name": "to",
          "type": "address"
        },
        {
          "indexed": false,
          "internalType": "uint256",
          "name": "amount",
          "type": "uint256"
        }
      ],
      "name": "CreatorWithdraw",
      "type": "event"
    },
    {
      "anonymous": false,
      "inputs": [
        {
          "indexed": false,
          "internalType": "address",
          "name": "from",
          "type": "address"
        },
        {
          "indexed": false,
          "internalType": "address",
          "name": "to",
          "type": "address"
        },
        {
          "indexed": false,
          "internalType": "uint8",
          "name": "tokenId",
          "type": "uint8"
        }
      ],
      "name": "Transfer",
      "type": "event"
    },
    {
      "anonymous": false,
      "inputs": [],
      "name": "Withdrawn",
      "type": "event"
    },
    {
      "inputs": [
        {
          "internalType": "address",
          "name": "_address",
          "type": "address"
        }
      ],
      "name": "balanceOf",
      "outputs": [
        {
          "internalType": "uint256",
          "name": "",
          "type": "uint256"
        }
      ],
      "stateMutability": "view",
      "type": "function"
    },
    {
      "inputs": [],
      "name": "cancelProject",
      "outputs": [],
      "stateMutability": "nonpayable",
      "type": "function"
    },
    {
      "inputs": [],
      "name": "contributeToProject",
      "outputs": [],
      "stateMutability": "payable",
      "type": "function"
    },
    {
      "inputs": [],
      "name": "contributedSum",
      "outputs": [
        {
          "internalType": "uint256",
          "name": "",
          "type": "uint256"
        }
      ],
      "stateMutability": "view",
      "type": "function"
    },
    {
      "inputs": [],
      "name": "contributorWithdraw",
      "outputs": [],
      "stateMutability": "nonpayable",
      "type": "function"
    },
    {
      "inputs": [
        {
          "internalType": "address",
          "name": "",
          "type": "address"
        }
      ],
      "name": "contributors",
      "outputs": [
        {
          "internalType": "uint256",
          "name": "",
          "type": "uint256"
        }
      ],
      "stateMutability": "view",
      "type": "function"
    },
    {
      "inputs": [],
      "name": "createdAt",
      "outputs": [
        {
          "internalType": "uint256",
          "name": "",
          "type": "uint256"
        }
      ],
      "stateMutability": "view",
      "type": "function"
    },
    {
      "inputs": [],
      "name": "creator",
      "outputs": [
        {
          "internalType": "address payable",
          "name": "",
          "type": "address"
        }
      ],
      "stateMutability": "view",
      "type": "function"
    },
    {
      "inputs": [
        {
          "internalType": "uint256",
          "name": "withdrawAmount",
          "type": "uint256"
        }
      ],
      "name": "creatorWithdraw",
      "outputs": [],
      "stateMutability": "nonpayable",
      "type": "function"
    },
    {
      "inputs": [],
      "name": "expiresIn",
      "outputs": [
        {
          "internalType": "uint256",
          "name": "",
          "type": "uint256"
        }
      ],
      "stateMutability": "view",
      "type": "function"
    },
    {
      "inputs": [],
      "name": "fullyFunded",
      "outputs": [
        {
          "internalType": "bool",
          "name": "",
          "type": "bool"
        }
      ],
      "stateMutability": "view",
      "type": "function"
    },
    {
      "inputs": [],
      "name": "fundingClosed",
      "outputs": [
        {
          "internalType": "bool",
          "name": "",
          "type": "bool"
        }
      ],
      "stateMutability": "view",
      "type": "function"
    },
    {
      "inputs": [
        {
          "internalType": "address",
          "name": "_address",
          "type": "address"
        }
      ],
      "name": "getToken",
      "outputs": [
        {
          "internalType": "uint256",
          "name": "",
          "type": "uint256"
        }
      ],
      "stateMutability": "view",
      "type": "function"
    },
    {
      "inputs": [
        {
          "internalType": "uint8",
          "name": "tokenId",
          "type": "uint8"
        }
      ],
      "name": "getType",
      "outputs": [
        {
          "internalType": "uint256",
          "name": "",
          "type": "uint256"
        }
      ],
      "stateMutability": "view",
      "type": "function"
    },
    {
      "inputs": [
        {
          "internalType": "uint8",
          "name": "tokenId",
          "type": "uint8"
        }
      ],
      "name": "ownerOf",
      "outputs": [
        {
          "internalType": "address",
          "name": "",
          "type": "address"
        }
      ],
      "stateMutability": "view",
      "type": "function"
    },
    {
      "inputs": [],
      "name": "targetAmount",
      "outputs": [
        {
          "internalType": "uint256",
          "name": "",
          "type": "uint256"
        }
      ],
      "stateMutability": "view",
      "type": "function"
    },
    {
      "inputs": [],
      "name": "title",
      "outputs": [
        {
          "internalType": "string",
          "name": "",
          "type": "string"
        }
      ],
      "stateMutability": "view",
      "type": "function"
    },
    {
      "stateMutability": "payable",
      "type": "receive"
    }
  ],
  "bytecode": "0x60806040526003600760006101000a81548160ff021916908360ff1602179055503480156200002d57600080fd5b506040516200247138038062002471833981810160405281019062000053919062000214565b336000806101000a81548173ffffffffffffffffffffffffffffffffffffffff021916908373ffffffffffffffffffffffffffffffffffffffff160217905550816003819055508060019080519060200190620000b2929190620000db565b504260058190555062278d00600554620000cd9190620002cd565b60068190555050506200048e565b828054620000e9906200036a565b90600052602060002090601f0160209004810192826200010d576000855562000159565b82601f106200012857805160ff191683800117855562000159565b8280016001018555821562000159579182015b82811115620001585782518255916020019190600101906200013b565b5b5090506200016891906200016c565b5090565b5b80821115620001875760008160009055506001016200016d565b5090565b6000620001a26200019c8462000297565b6200026e565b905082815260208101848484011115620001bb57600080fd5b620001c884828562000334565b509392505050565b600082601f830112620001e257600080fd5b8151620001f48482602086016200018b565b91505092915050565b6000815190506200020e8162000474565b92915050565b600080604083850312156200022857600080fd5b60006200023885828601620001fd565b925050602083015167ffffffffffffffff8111156200025657600080fd5b6200026485828601620001d0565b9150509250929050565b60006200027a6200028d565b9050620002888282620003a0565b919050565b6000604051905090565b600067ffffffffffffffff821115620002b557620002b462000434565b5b620002c08262000463565b9050602081019050919050565b6000620002da826200032a565b9150620002e7836200032a565b9250827fffffffffffffffffffffffffffffffffffffffffffffffffffffffffffffffff038211156200031f576200031e620003d6565b5b828201905092915050565b6000819050919050565b60005b838110156200035457808201518184015260208101905062000337565b8381111562000364576000848401525b50505050565b600060028204905060018216806200038357607f821691505b602082108114156200039a576200039962000405565b5b50919050565b620003ab8262000463565b810181811067ffffffffffffffff82111715620003cd57620003cc62000434565b5b80604052505050565b7f4e487b7100000000000000000000000000000000000000000000000000000000600052601160045260246000fd5b7f4e487b7100000000000000000000000000000000000000000000000000000000600052602260045260246000fd5b7f4e487b7100000000000000000000000000000000000000000000000000000000600052604160045260246000fd5b6000601f19601f8301169050919050565b6200047f816200032a565b81146200048b57600080fd5b50565b611fd3806200049e6000396000f3fe6080604052600436106101025760003560e01c80634a79d50c11610095578063953b8fb811610064578063953b8fb814610342578063a7361afb1461036d578063abdc824e14610377578063cf09e0d0146103a2578063d7410430146103cd57610109565b80634a79d50c14610274578063597704381461029f57806370a08231146102dc57806371eb89f31461031957610109565b80631adff0ee116100d15780631adff0ee146101de5780631f6d4942146101f55780632116da5b1461023257806336e5ddc91461025d57610109565b8063024591ff1461010e57806302d05d3f1461014b5780630c5fe27c14610176578063122093e3146101a157610109565b3661010957005b600080fd5b34801561011a57600080fd5b5061013560048036038101906101309190611491565b6103f8565b604051610142919061174c565b60405180910390f35b34801561015757600080fd5b5061016061043b565b60405161016d9190611767565b60405180910390f35b34801561018257600080fd5b5061018b61045f565b6040516101989190611a34565b60405180910390f35b3480156101ad57600080fd5b506101c860048036038101906101c39190611491565b610465565b6040516101d59190611a34565b60405180910390f35b3480156101ea57600080fd5b506101f3610531565b005b34801561020157600080fd5b5061021c6004803603810190610217919061143f565b61067c565b6040516102299190611a34565b60405180910390f35b34801561023e57600080fd5b50610247610694565b6040516102549190611819565b60405180910390f35b34801561026957600080fd5b506102726106a7565b005b34801561028057600080fd5b506102896109e3565b6040516102969190611834565b60405180910390f35b3480156102ab57600080fd5b506102c660048036038101906102c1919061143f565b610a71565b6040516102d39190611a34565b60405180910390f35b3480156102e857600080fd5b5061030360048036038101906102fe919061143f565b610aba565b6040516103109190611a34565b60405180910390f35b34801561032557600080fd5b50610340600480360381019061033b9190611468565b610b03565b005b34801561034e57600080fd5b50610357610dbb565b6040516103649190611a34565b60405180910390f35b610375610dc1565b005b34801561038357600080fd5b5061038c611102565b6040516103999190611819565b60405180910390f35b3480156103ae57600080fd5b506103b7611115565b6040516103c49190611a34565b60405180910390f35b3480156103d957600080fd5b506103e261111b565b6040516103ef9190611a34565b60405180910390f35b6000600960008360ff1660ff16815260200190815260200160002060009054906101000a900473ffffffffffffffffffffffffffffffffffffffff169050919050565b60008054906101000a900473ffffffffffffffffffffffffffffffffffffffff1681565b60065481565b60008073ffffffffffffffffffffffffffffffffffffffff16600960008460ff1660ff16815260200190815260200160002060009054906101000a900473ffffffffffffffffffffffffffffffffffffffff1673ffffffffffffffffffffffffffffffffffffffff16141561050f576040517f08c379a0000000000000000000000000000000000000000000000000000000008152600401610506906118d4565b60405180910390fd5b6000600760009054906101000a900460ff16831690508060ff16915050919050565b60008054906101000a900473ffffffffffffffffffffffffffffffffffffffff1673ffffffffffffffffffffffffffffffffffffffff163373ffffffffffffffffffffffffffffffffffffffff16146105bf576040517f08c379a00000000000000000000000000000000000000000000000000000000081526004016105b6906119f4565b60405180910390fd5b600760019054906101000a900460ff161561060f576040517f08c379a000000000000000000000000000000000000000000000000000000000815260040161060690611a14565b60405180910390fd5b600760029054906101000a900460ff161561065f576040517f08c379a0000000000000000000000000000000000000000000000000000000008152600401610656906119b4565b60405180910390fd5b6001600760026101000a81548160ff021916908315150217905550565b60086020528060005260406000206000915090505481565b600760029054906101000a900460ff1681565b600760019054906101000a900460ff16156106f7576040517f08c379a00000000000000000000000000000000000000000000000000000000081526004016106ee90611a14565b60405180910390fd5b600760029054906101000a900460ff166107965761075b6040518060400160405280600681526020017f74696d696e6700000000000000000000000000000000000000000000000000008152504262278d006005546107569190611a76565b611121565b600062278d0060055461076e9190611a76565b421190508015610794576001600760026101000a81548160ff0219169083151502179055505b505b600760029054906101000a900460ff166107e5576040517f08c379a00000000000000000000000000000000000000000000000000000000081526004016107dc906118f4565b60405180910390fd5b6000600860003373ffffffffffffffffffffffffffffffffffffffff1673ffffffffffffffffffffffffffffffffffffffff168152602001908152602001600020541415610868576040517f08c379a000000000000000000000000000000000000000000000000000000000815260040161085f90611894565b60405180910390fd5b6000600860003373ffffffffffffffffffffffffffffffffffffffff1673ffffffffffffffffffffffffffffffffffffffff1681526020019081526020016000205490506000600860003373ffffffffffffffffffffffffffffffffffffffff1673ffffffffffffffffffffffffffffffffffffffff168152602001908152602001600020819055506108fa336111c0565b60003373ffffffffffffffffffffffffffffffffffffffff168260405161092090611737565b60006040518083038185875af1925050503d806000811461095d576040519150601f19603f3d011682016040523d82523d6000602084013e610962565b606091505b50509050806109a6576040517f08c379a000000000000000000000000000000000000000000000000000000000815260040161099d90611954565b60405180910390fd5b7f5adaf4d1a36d8ab80a8c79cd9b9915f762db52dd783be616aa25a6238218c96233836040516109d79291906117f0565b60405180910390a15050565b600180546109f090611c07565b80601f0160208091040260200160405190810160405280929190818152602001828054610a1c90611c07565b8015610a695780601f10610a3e57610100808354040283529160200191610a69565b820191906000526020600020905b815481529060010190602001808311610a4c57829003601f168201915b505050505081565b6000600a60008373ffffffffffffffffffffffffffffffffffffffff1673ffffffffffffffffffffffffffffffffffffffff168152602001908152602001600020549050919050565b6000600860008373ffffffffffffffffffffffffffffffffffffffff1673ffffffffffffffffffffffffffffffffffffffff168152602001908152602001600020549050919050565b60008054906101000a900473ffffffffffffffffffffffffffffffffffffffff1673ffffffffffffffffffffffffffffffffffffffff163373ffffffffffffffffffffffffffffffffffffffff1614610b91576040517f08c379a0000000000000000000000000000000000000000000000000000000008152600401610b88906119f4565b60405180910390fd5b600760019054906101000a900460ff16610be0576040517f08c379a0000000000000000000000000000000000000000000000000000000008152600401610bd7906119d4565b60405180910390fd5b600760029054906101000a900460ff1615610c30576040517f08c379a0000000000000000000000000000000000000000000000000000000008152600401610c27906119b4565b60405180910390fd5b8060045411610c74576040517f08c379a0000000000000000000000000000000000000000000000000000000008152600401610c6b90611974565b60405180910390fd5b610c898160045461128b90919063ffffffff16565b60048190555060008060009054906101000a900473ffffffffffffffffffffffffffffffffffffffff1673ffffffffffffffffffffffffffffffffffffffff1682604051610cd690611737565b60006040518083038185875af1925050503d8060008114610d13576040519150601f19603f3d011682016040523d82523d6000602084013e610d18565b606091505b5050905080610d5c576040517f08c379a0000000000000000000000000000000000000000000000000000000008152600401610d53906118b4565b60405180910390fd5b7f9e9d296fc20327f4c51b991917397cd7d530fb5caf24682cf79a615ed245d35b3360008054906101000a900473ffffffffffffffffffffffffffffffffffffffff1684604051610daf93929190611782565b60405180910390a15050565b60035481565b662386f26fc100003411610e0a576040517f08c379a0000000000000000000000000000000000000000000000000000000008152600401610e0190611914565b60405180910390fd5b600760019054906101000a900460ff1615610e5a576040517f08c379a0000000000000000000000000000000000000000000000000000000008152600401610e5190611a14565b60405180910390fd5b600062278d00600554610e6d9190611a76565b421190508015610e93576001600760026101000a81548160ff0219169083151502179055505b600760029054906101000a900460ff1615610ee3576040517f08c379a0000000000000000000000000000000000000000000000000000000008152600401610eda90611994565b60405180910390fd5b600080600860003373ffffffffffffffffffffffffffffffffffffffff1673ffffffffffffffffffffffffffffffffffffffff1681526020019081526020016000205414610f8457610f7d34600860003373ffffffffffffffffffffffffffffffffffffffff1673ffffffffffffffffffffffffffffffffffffffff168152602001908152602001600020546112a190919063ffffffff16565b9050610f88565b3490505b6003548110610fad576001600760016101000a81548160ff0219169083151502179055505b80600860003373ffffffffffffffffffffffffffffffffffffffff1673ffffffffffffffffffffffffffffffffffffffff16815260200190815260200160002081905550611006346004546112a190919063ffffffff16565b600481905550670de0b6b3a764000081106110625761105d600280811115611057577f4e487b7100000000000000000000000000000000000000000000000000000000600052602160045260246000fd5b336112b7565b6110fe565b6703782dace9d9000081106110b9576110b4600160028111156110ae577f4e487b7100000000000000000000000000000000000000000000000000000000600052602160045260246000fd5b336112b7565b6110fd565b6110fc600060028111156110f6577f4e487b7100000000000000000000000000000000000000000000000000000000600052602160045260246000fd5b336112b7565b5b5b5050565b600760019054906101000a900460ff1681565b60055481565b60045481565b6111bb83838360405160240161113993929190611856565b6040516020818303038152906040527f969cdd03000000000000000000000000000000000000000000000000000000007bffffffffffffffffffffffffffffffffffffffffffffffffffffffff19166020820180517bffffffffffffffffffffffffffffffffffffffffffffffffffffffff83818316178352505050506113d7565b505050565b6000600a60008373ffffffffffffffffffffffffffffffffffffffff1673ffffffffffffffffffffffffffffffffffffffff168152602001908152602001600020541415611243576040517f08c379a000000000000000000000000000000000000000000000000000000000815260040161123a90611934565b60405180910390fd5b6000600a60008373ffffffffffffffffffffffffffffffffffffffff1673ffffffffffffffffffffffffffffffffffffffff1681526020019081526020016000208190555050565b600081836112999190611b03565b905092915050565b600081836112af9190611a76565b905092915050565b600082600760009054906101000a900460ff1660ff16600254901b6112dc9190611acc565b905081600960008360ff1660ff16815260200190815260200160002060006101000a81548173ffffffffffffffffffffffffffffffffffffffff021916908373ffffffffffffffffffffffffffffffffffffffff1602179055508060ff16600a60008473ffffffffffffffffffffffffffffffffffffffff1673ffffffffffffffffffffffffffffffffffffffff168152602001908152602001600020819055506001600260008282546113909190611a76565b925050819055507f2c4d9d1041355b152e80b28195d8cd57a1363203c2b1a39c0559f0e757747d5c3383836040516113ca939291906117b9565b60405180910390a1505050565b60008151905060006a636f6e736f6c652e6c6f679050602083016000808483855afa5050505050565b60008135905061140f81611f58565b92915050565b60008135905061142481611f6f565b92915050565b60008135905061143981611f86565b92915050565b60006020828403121561145157600080fd5b600061145f84828501611400565b91505092915050565b60006020828403121561147a57600080fd5b600061148884828501611415565b91505092915050565b6000602082840312156114a357600080fd5b60006114b18482850161142a565b91505092915050565b6114c381611b9e565b82525050565b6114d281611b49565b82525050565b6114e181611b37565b82525050565b6114f081611b5b565b82525050565b600061150182611a4f565b61150b8185611a65565b935061151b818560208601611bd4565b61152481611c97565b840191505092915050565b600061153c602383611a65565b915061154782611ca8565b604082019050919050565b600061155f601f83611a65565b915061156a82611cf7565b602082019050919050565b6000611582601483611a65565b915061158d82611d20565b602082019050919050565b60006115a5601583611a65565b91506115b082611d49565b602082019050919050565b60006115c8602583611a65565b91506115d382611d72565b604082019050919050565b60006115eb601783611a65565b91506115f682611dc1565b602082019050919050565b600061160e601583611a65565b915061161982611dea565b602082019050919050565b6000611631602983611a65565b915061163c82611e13565b604082019050919050565b6000611654601083611a65565b915061165f82611e62565b602082019050919050565b6000611677600083611a5a565b915061168282611e8b565b600082019050919050565b600061169a601983611a65565b91506116a582611e8e565b602082019050919050565b60006116bd601f83611a65565b91506116c882611eb7565b602082019050919050565b60006116e0602783611a65565b91506116eb82611ee0565b604082019050919050565b6000611703601783611a65565b915061170e82611f2f565b602082019050919050565b61172281611b87565b82525050565b61173181611b91565b82525050565b60006117428261166a565b9150819050919050565b600060208201905061176160008301846114d8565b92915050565b600060208201905061177c60008301846114c9565b92915050565b600060608201905061179760008301866114d8565b6117a460208301856114ba565b6117b16040830184611719565b949350505050565b60006060820190506117ce60008301866114d8565b6117db60208301856114d8565b6117e86040830184611728565b949350505050565b600060408201905061180560008301856114d8565b6118126020830184611719565b9392505050565b600060208201905061182e60008301846114e7565b92915050565b6000602082019050818103600083015261184e81846114f6565b905092915050565b6000606082019050818103600083015261187081866114f6565b905061187f6020830185611719565b61188c6040830184611719565b949350505050565b600060208201905081810360008301526118ad8161152f565b9050919050565b600060208201905081810360008301526118cd81611552565b9050919050565b600060208201905081810360008301526118ed81611575565b9050919050565b6000602082019050818103600083015261190d81611598565b9050919050565b6000602082019050818103600083015261192d816115bb565b9050919050565b6000602082019050818103600083015261194d816115de565b9050919050565b6000602082019050818103600083015261196d81611601565b9050919050565b6000602082019050818103600083015261198d81611624565b9050919050565b600060208201905081810360008301526119ad81611647565b9050919050565b600060208201905081810360008301526119cd8161168d565b9050919050565b600060208201905081810360008301526119ed816116b0565b9050919050565b60006020820190508181036000830152611a0d816116d3565b9050919050565b60006020820190508181036000830152611a2d816116f6565b9050919050565b6000602082019050611a496000830184611719565b92915050565b600081519050919050565b600081905092915050565b600082825260208201905092915050565b6000611a8182611b87565b9150611a8c83611b87565b9250827fffffffffffffffffffffffffffffffffffffffffffffffffffffffffffffffff03821115611ac157611ac0611c39565b5b828201905092915050565b6000611ad782611b91565b9150611ae283611b91565b92508260ff03821115611af857611af7611c39565b5b828201905092915050565b6000611b0e82611b87565b9150611b1983611b87565b925082821015611b2c57611b2b611c39565b5b828203905092915050565b6000611b4282611b67565b9050919050565b6000611b5482611b67565b9050919050565b60008115159050919050565b600073ffffffffffffffffffffffffffffffffffffffff82169050919050565b6000819050919050565b600060ff82169050919050565b6000611ba982611bb0565b9050919050565b6000611bbb82611bc2565b9050919050565b6000611bcd82611b67565b9050919050565b60005b83811015611bf2578082015181840152602081019050611bd7565b83811115611c01576000848401525b50505050565b60006002820490506001821680611c1f57607f821691505b60208210811415611c3357611c32611c68565b5b50919050565b7f4e487b7100000000000000000000000000000000000000000000000000000000600052601160045260246000fd5b7f4e487b7100000000000000000000000000000000000000000000000000000000600052602260045260246000fd5b6000601f19601f8301169050919050565b7f4164647265737320686173206e6f742066756e64656420746869732070726f6a60008201527f6563740000000000000000000000000000000000000000000000000000000000602082015250565b7f4661696c656420746f2073656e6420457468657220746f2043726561746f7200600082015250565b7f546f6b656e20646f6573206e6f74206578697374000000000000000000000000600082015250565b7f50726f6a656374206973207374696c6c206f70656e0000000000000000000000600082015250565b7f4d696e696e756d20726571756972656420616d6f756e7420697320302e30312060008201527f6574686572000000000000000000000000000000000000000000000000000000602082015250565b7f4e6f20746f6b656e20657869737420666f722075736572000000000000000000600082015250565b7f4574686572205769746864726177206661696c65640000000000000000000000600082015250565b7f416d6f756e7420746f207769746864726177206578636565647320636f6e747260008201527f6163742066756e64730000000000000000000000000000000000000000000000602082015250565b7f4578636565646564203330206461797300000000000000000000000000000000600082015250565b50565b7f50726f6a65637420697320616c726561647920636c6f73656400000000000000600082015250565b7f50726f6a656374206973206e6f742066756c6c792066756e6465642079657400600082015250565b7f4f6e6c792070726f6a6563742063726561746f722063616e207769746864726160008201527f772066756e647300000000000000000000000000000000000000000000000000602082015250565b7f50726f6a6563742069732066756c6c792066756e646564000000000000000000600082015250565b611f6181611b37565b8114611f6c57600080fd5b50565b611f7881611b87565b8114611f8357600080fd5b50565b611f8f81611b91565b8114611f9a57600080fd5b5056fea2646970667358221220d7f0d75f874c6da3ea143d0b4f023473e47e26ef919bf2cc9b9424582c420f2564736f6c63430008040033",
  "linkReferences": {},
  "deployedLinkReferences": {}
}